{
  "contractName": "SolnSquareVerifier",
  "abi": [
    {
      "inputs": [
        {
          "internalType": "string",
          "name": "name",
          "type": "string"
        },
        {
          "internalType": "string",
          "name": "symbol",
          "type": "string"
        }
      ],
      "payable": false,
      "stateMutability": "nonpayable",
      "type": "constructor"
    },
    {
      "anonymous": false,
      "inputs": [
        {
          "indexed": true,
          "internalType": "address",
          "name": "owner",
          "type": "address"
        },
        {
          "indexed": true,
          "internalType": "address",
          "name": "approved",
          "type": "address"
        },
        {
          "indexed": true,
          "internalType": "uint256",
          "name": "tokenId",
          "type": "uint256"
        }
      ],
      "name": "Approval",
      "type": "event"
    },
    {
      "anonymous": false,
      "inputs": [
        {
          "indexed": true,
          "internalType": "address",
          "name": "owner",
          "type": "address"
        },
        {
          "indexed": true,
          "internalType": "address",
          "name": "operator",
          "type": "address"
        },
        {
          "indexed": false,
          "internalType": "bool",
          "name": "approved",
          "type": "bool"
        }
      ],
      "name": "ApprovalForAll",
      "type": "event"
    },
    {
      "anonymous": false,
      "inputs": [
        {
          "indexed": false,
          "internalType": "address",
          "name": "_owner",
          "type": "address"
        }
      ],
      "name": "OwnershipIsTransfered",
      "type": "event"
    },
    {
      "anonymous": false,
      "inputs": [
        {
          "indexed": false,
          "internalType": "address",
          "name": "triggerAddress",
          "type": "address"
        }
      ],
      "name": "Paused",
      "type": "event"
    },
    {
      "anonymous": false,
      "inputs": [
        {
          "components": [
            {
              "internalType": "uint256",
              "name": "_index",
              "type": "uint256"
            },
            {
              "internalType": "address",
              "name": "_address",
              "type": "address"
            }
          ],
          "indexed": false,
          "internalType": "struct SolnSquareVerifier.SolutionsStruct",
          "name": "solutionsStruct",
          "type": "tuple"
        }
      ],
      "name": "SolutionIsAdded",
      "type": "event"
    },
    {
      "anonymous": false,
      "inputs": [
        {
          "indexed": false,
          "internalType": "uint256",
          "name": "_index",
          "type": "uint256"
        },
        {
          "indexed": false,
          "internalType": "address",
          "name": "_address",
          "type": "address"
        }
      ],
      "name": "SolutionsIsMinted",
      "type": "event"
    },
    {
      "anonymous": false,
      "inputs": [
        {
          "indexed": true,
          "internalType": "address",
          "name": "from",
          "type": "address"
        },
        {
          "indexed": true,
          "internalType": "address",
          "name": "to",
          "type": "address"
        },
        {
          "indexed": true,
          "internalType": "uint256",
          "name": "tokenId",
          "type": "uint256"
        }
      ],
      "name": "Transfer",
      "type": "event"
    },
    {
      "anonymous": false,
      "inputs": [
        {
          "indexed": false,
          "internalType": "address",
          "name": "triggerAddress",
          "type": "address"
        }
      ],
      "name": "Unpaused",
      "type": "event"
    },
    {
      "constant": false,
      "inputs": [
        {
          "internalType": "bytes32",
          "name": "_myid",
          "type": "bytes32"
        },
        {
          "internalType": "string",
          "name": "_result",
          "type": "string"
        }
      ],
      "name": "__callback",
      "outputs": [],
      "payable": false,
      "stateMutability": "nonpayable",
      "type": "function"
    },
    {
      "constant": false,
      "inputs": [
        {
          "internalType": "bytes32",
          "name": "_myid",
          "type": "bytes32"
        },
        {
          "internalType": "string",
          "name": "_result",
          "type": "string"
        },
        {
          "internalType": "bytes",
          "name": "_proof",
          "type": "bytes"
        }
      ],
      "name": "__callback",
      "outputs": [],
      "payable": false,
      "stateMutability": "nonpayable",
      "type": "function"
    },
    {
      "constant": false,
      "inputs": [
        {
          "internalType": "address",
          "name": "to",
          "type": "address"
        },
        {
          "internalType": "uint256",
          "name": "tokenId",
          "type": "uint256"
        }
      ],
      "name": "approve",
      "outputs": [],
      "payable": false,
      "stateMutability": "nonpayable",
      "type": "function"
    },
    {
      "constant": true,
      "inputs": [
        {
          "internalType": "address",
          "name": "owner",
          "type": "address"
        }
      ],
      "name": "balanceOf",
      "outputs": [
        {
          "internalType": "uint256",
          "name": "",
          "type": "uint256"
        }
      ],
      "payable": false,
      "stateMutability": "view",
      "type": "function"
    },
    {
      "constant": true,
      "inputs": [
        {
          "internalType": "uint256",
          "name": "tokenId",
          "type": "uint256"
        }
      ],
      "name": "getApproved",
      "outputs": [
        {
          "internalType": "address",
          "name": "",
          "type": "address"
        }
      ],
      "payable": false,
      "stateMutability": "view",
      "type": "function"
    },
    {
      "constant": true,
      "inputs": [],
      "name": "getBaseTokenURI",
      "outputs": [
        {
          "internalType": "string",
          "name": "",
          "type": "string"
        }
      ],
      "payable": false,
      "stateMutability": "view",
      "type": "function"
    },
    {
      "constant": true,
      "inputs": [],
      "name": "getName",
      "outputs": [
        {
          "internalType": "string",
          "name": "",
          "type": "string"
        }
      ],
      "payable": false,
      "stateMutability": "view",
      "type": "function"
    },
    {
      "constant": true,
      "inputs": [],
      "name": "getOwner",
      "outputs": [
        {
          "internalType": "address",
          "name": "",
          "type": "address"
        }
      ],
      "payable": false,
      "stateMutability": "view",
      "type": "function"
    },
    {
      "constant": true,
      "inputs": [],
      "name": "getSymbol",
      "outputs": [
        {
          "internalType": "string",
          "name": "",
          "type": "string"
        }
      ],
      "payable": false,
      "stateMutability": "view",
      "type": "function"
    },
    {
      "constant": true,
      "inputs": [
        {
          "internalType": "address",
          "name": "owner",
          "type": "address"
        },
        {
          "internalType": "address",
          "name": "operator",
          "type": "address"
        }
      ],
      "name": "isApprovedForAll",
      "outputs": [
        {
          "internalType": "bool",
          "name": "",
          "type": "bool"
        }
      ],
      "payable": false,
      "stateMutability": "view",
      "type": "function"
    },
    {
      "constant": false,
      "inputs": [
        {
          "internalType": "address",
          "name": "to",
          "type": "address"
        },
        {
          "internalType": "uint256",
          "name": "tokenId",
          "type": "uint256"
        }
      ],
      "name": "mint",
      "outputs": [
        {
          "internalType": "bool",
          "name": "",
          "type": "bool"
        }
      ],
      "payable": false,
      "stateMutability": "nonpayable",
      "type": "function"
    },
    {
      "constant": true,
      "inputs": [
        {
          "internalType": "uint256",
          "name": "tokenId",
          "type": "uint256"
        }
      ],
      "name": "ownerOf",
      "outputs": [
        {
          "internalType": "address",
          "name": "",
          "type": "address"
        }
      ],
      "payable": false,
      "stateMutability": "view",
      "type": "function"
    },
    {
      "constant": false,
      "inputs": [
        {
          "internalType": "address",
          "name": "from",
          "type": "address"
        },
        {
          "internalType": "address",
          "name": "to",
          "type": "address"
        },
        {
          "internalType": "uint256",
          "name": "tokenId",
          "type": "uint256"
        }
      ],
      "name": "safeTransferFrom",
      "outputs": [],
      "payable": false,
      "stateMutability": "nonpayable",
      "type": "function"
    },
    {
      "constant": false,
      "inputs": [
        {
          "internalType": "address",
          "name": "from",
          "type": "address"
        },
        {
          "internalType": "address",
          "name": "to",
          "type": "address"
        },
        {
          "internalType": "uint256",
          "name": "tokenId",
          "type": "uint256"
        },
        {
          "internalType": "bytes",
          "name": "_data",
          "type": "bytes"
        }
      ],
      "name": "safeTransferFrom",
      "outputs": [],
      "payable": false,
      "stateMutability": "nonpayable",
      "type": "function"
    },
    {
      "constant": false,
      "inputs": [
        {
          "internalType": "address",
          "name": "to",
          "type": "address"
        },
        {
          "internalType": "bool",
          "name": "approved",
          "type": "bool"
        }
      ],
      "name": "setApprovalForAll",
      "outputs": [],
      "payable": false,
      "stateMutability": "nonpayable",
      "type": "function"
    },
    {
      "constant": false,
      "inputs": [
        {
          "internalType": "bool",
          "name": "status",
          "type": "bool"
        }
      ],
      "name": "setter",
      "outputs": [],
      "payable": false,
      "stateMutability": "nonpayable",
      "type": "function"
    },
    {
      "constant": true,
      "inputs": [
        {
          "internalType": "bytes4",
          "name": "interfaceId",
          "type": "bytes4"
        }
      ],
      "name": "supportsInterface",
      "outputs": [
        {
          "internalType": "bool",
          "name": "",
          "type": "bool"
        }
      ],
      "payable": false,
      "stateMutability": "view",
      "type": "function"
    },
    {
      "constant": true,
      "inputs": [
        {
          "internalType": "uint256",
          "name": "index",
          "type": "uint256"
        }
      ],
      "name": "tokenByIndex",
      "outputs": [
        {
          "internalType": "uint256",
          "name": "",
          "type": "uint256"
        }
      ],
      "payable": false,
      "stateMutability": "view",
      "type": "function"
    },
    {
      "constant": true,
      "inputs": [
        {
          "internalType": "address",
          "name": "owner",
          "type": "address"
        },
        {
          "internalType": "uint256",
          "name": "index",
          "type": "uint256"
        }
      ],
      "name": "tokenOfOwnerByIndex",
      "outputs": [
        {
          "internalType": "uint256",
          "name": "",
          "type": "uint256"
        }
      ],
      "payable": false,
      "stateMutability": "view",
      "type": "function"
    },
    {
      "constant": true,
      "inputs": [
        {
          "internalType": "uint256",
          "name": "tokenId",
          "type": "uint256"
        }
      ],
      "name": "tokenURI",
      "outputs": [
        {
          "internalType": "string",
          "name": "",
          "type": "string"
        }
      ],
      "payable": false,
      "stateMutability": "view",
      "type": "function"
    },
    {
      "constant": true,
      "inputs": [],
      "name": "totalSupply",
      "outputs": [
        {
          "internalType": "uint256",
          "name": "",
          "type": "uint256"
        }
      ],
      "payable": false,
      "stateMutability": "view",
      "type": "function"
    },
    {
      "constant": false,
      "inputs": [
        {
          "internalType": "address",
          "name": "from",
          "type": "address"
        },
        {
          "internalType": "address",
          "name": "to",
          "type": "address"
        },
        {
          "internalType": "uint256",
          "name": "tokenId",
          "type": "uint256"
        }
      ],
      "name": "transferFrom",
      "outputs": [],
      "payable": false,
      "stateMutability": "nonpayable",
      "type": "function"
    },
    {
      "constant": false,
      "inputs": [
        {
          "internalType": "address",
          "name": "newOwner",
          "type": "address"
        }
      ],
      "name": "transferOwnership",
      "outputs": [],
      "payable": false,
      "stateMutability": "nonpayable",
      "type": "function"
    },
    {
      "constant": true,
      "inputs": [],
      "name": "verifier",
      "outputs": [
        {
          "internalType": "contract Verifier",
          "name": "",
          "type": "address"
        }
      ],
      "payable": false,
      "stateMutability": "view",
      "type": "function"
    },
    {
      "constant": false,
      "inputs": [
        {
          "internalType": "uint256",
          "name": "_index",
          "type": "uint256"
        },
        {
          "internalType": "address",
          "name": "_address",
          "type": "address"
        }
      ],
      "name": "addSolution",
      "outputs": [],
      "payable": false,
      "stateMutability": "nonpayable",
      "type": "function"
    },
    {
      "constant": false,
      "inputs": [
        {
          "internalType": "uint256",
          "name": "_index",
          "type": "uint256"
        },
        {
          "internalType": "address",
          "name": "_address",
          "type": "address"
        }
      ],
      "name": "mintNewNFT",
      "outputs": [
        {
          "internalType": "bool",
          "name": "",
          "type": "bool"
        }
      ],
      "payable": false,
      "stateMutability": "nonpayable",
      "type": "function"
    }
  ],
  "bytecode": "0x60806040523480156200001157600080fd5b5060405162003dc638038062003dc6833981810160405262000037919081019062000588565b818181816040518060600160405280603f815260200162003d87603f9139336000806101000a81548173ffffffffffffffffffffffffffffffffffffffff021916908373ffffffffffffffffffffffffffffffffffffffff1602179055507ff260d1206b064dfcd9f66a6d0ea985c3bbc2e66256f9c81129870a94bfbfe4146000809054906101000a900473ffffffffffffffffffffffffffffffffffffffff16604051620000e7919062000685565b60405180910390a16200010160006200029f60201b60201c565b620001196301ffc9a760e01b620003dd60201b60201c565b620001316380ac58cd60e01b620003dd60201b60201c565b6200014963780e9d6360e01b620003dd60201b60201c565b82600f9080519060200190620001619291906200047d565b5081601090805190602001906200017a9291906200047d565b508060119080519060200190620001939291906200047d565b50620001ac635b5e139f60e01b620003dd60201b60201c565b50505033601360006101000a81548173ffffffffffffffffffffffffffffffffffffffff021916908373ffffffffffffffffffffffffffffffffffffffff1602179055508160149080519060200190620002089291906200047d565b508060159080519060200190620002219291906200047d565b506040518060600160405280603f815260200162003d87603f913960169080519060200190620002539291906200047d565b50505033601760006101000a81548173ffffffffffffffffffffffffffffffffffffffff021916908373ffffffffffffffffffffffffffffffffffffffff1602179055505050620007f3565b6000809054906101000a900473ffffffffffffffffffffffffffffffffffffffff1673ffffffffffffffffffffffffffffffffffffffff163373ffffffffffffffffffffffffffffffffffffffff161462000331576040517f08c379a00000000000000000000000000000000000000000000000000000000081526004016200032890620006bf565b60405180910390fd5b80600060146101000a81548160ff021916908315150217905550600060149054906101000a900460ff1615620003a0577f62e78cea01bee320cd4e420270b5ea74000d11b0c9f74754ebdbfc544b05a25833604051620003929190620006a2565b60405180910390a1620003da565b7f5db9ee0a495bf2e6ff9c91a7834c1ba4fdd244a5e8aa4e537bd38aeae4b073aa33604051620003d19190620006a2565b60405180910390a15b50565b63ffffffff60e01b817bffffffffffffffffffffffffffffffffffffffffffffffffffffffff191614156200041157600080fd5b6001806000837bffffffffffffffffffffffffffffffffffffffffffffffffffffffff19167bffffffffffffffffffffffffffffffffffffffffffffffffffffffff1916815260200190815260200160002060006101000a81548160ff02191690831515021790555050565b828054600181600116156101000203166002900490600052602060002090601f016020900481019282601f10620004c057805160ff1916838001178555620004f1565b82800160010185558215620004f1579182015b82811115620004f0578251825591602001919060010190620004d3565b5b50905062000500919062000504565b5090565b6200052991905b80821115620005255760008160009055506001016200050b565b5090565b90565b600082601f8301126200053e57600080fd5b8151620005556200054f826200070f565b620006e1565b915080825260208301602083018583830111156200057257600080fd5b6200057f838284620007bd565b50505092915050565b600080604083850312156200059c57600080fd5b600083015167ffffffffffffffff811115620005b757600080fd5b620005c5858286016200052c565b925050602083015167ffffffffffffffff811115620005e357600080fd5b620005f1858286016200052c565b9150509250929050565b620006068162000781565b82525050565b62000617816200074d565b82525050565b60006200062c6027836200073c565b91507f43616c6c6564206279206f74686572206163636f756e742c206e6f742074686560008301527f206f776e657221000000000000000000000000000000000000000000000000006020830152604082019050919050565b60006020820190506200069c60008301846200060c565b92915050565b6000602082019050620006b96000830184620005fb565b92915050565b60006020820190508181036000830152620006da816200061d565b9050919050565b6000604051905081810181811067ffffffffffffffff821117156200070557600080fd5b8060405250919050565b600067ffffffffffffffff8211156200072757600080fd5b601f19601f8301169050602081019050919050565b600082825260208201905092915050565b60006200075a8262000761565b9050919050565b600073ffffffffffffffffffffffffffffffffffffffff82169050919050565b60006200078e8262000795565b9050919050565b6000620007a282620007a9565b9050919050565b6000620007b68262000761565b9050919050565b60005b83811015620007dd578082015181840152602081019050620007c0565b83811115620007ed576000848401525b50505050565b61358480620008036000396000f3fe608060405234801561001057600080fd5b506004361061018e5760003560e01c806342842e0e116100de578063b88d4fde11610097578063c972933811610071578063c9729338146104a7578063ccd0ef69146104d7578063e985e9c5146104f3578063f2fde38b146105235761018e565b8063b88d4fde1461043d578063bdc32be014610459578063c87b56dd146104775761018e565b806342842e0e146103575780634f6ccce7146103735780636352211e146103a357806370a08231146103d3578063893d20e814610403578063a22cb465146104215761018e565b806318160ddd1161014b5780632b7ac3f3116101255780632b7ac3f3146102bd5780632f745c59146102db57806338bbfa501461030b57806340c10f19146103275761018e565b806318160ddd1461026757806323b872dd1461028557806327dc297e146102a15761018e565b80630159ead91461019357806301ffc9a7146101af578063081812fc146101df578063095ea7b31461020f578063150704011461022b57806317d7de7c14610249575b600080fd5b6101ad60048036036101a8919081019061297b565b61053f565b005b6101c960048036036101c49190810190612a77565b610674565b6040516101d691906130b8565b60405180910390f35b6101f960048036036101f49190810190612ac9565b6106dc565b6040516102069190613036565b60405180910390f35b6102296004803603610224919081019061293f565b610761565b005b61023361090e565b60405161024091906130ee565b60405180910390f35b6102516109b0565b60405161025e91906130ee565b60405180910390f35b61026f610a52565b60405161027c91906132cb565b60405180910390f35b61029f600480360361029a9190810190612839565b610a5f565b005b6102bb60048036036102b691908101906129a4565b610a82565b005b6102c5610ac5565b6040516102d291906130d3565b60405180910390f35b6102f560048036036102f0919081019061293f565b610aeb565b60405161030291906132cb565b60405180910390f35b610325600480360361032091908101906129f8565b610b5e565b005b610341600480360361033c919081019061293f565b610b63565b60405161034e91906130b8565b60405180910390f35b610371600480360361036c9190810190612839565b610c68565b005b61038d60048036036103889190810190612ac9565b610c88565b60405161039a91906132cb565b60405180910390f35b6103bd60048036036103b89190810190612ac9565b610cbc565b6040516103ca9190613036565b60405180910390f35b6103ed60048036036103e891908101906127d4565b610d6e565b6040516103fa91906132cb565b60405180910390f35b61040b610e2d565b6040516104189190613036565b60405180910390f35b61043b60048036036104369190810190612903565b610e56565b005b61045760048036036104529190810190612888565b610f8c565b005b610461610fb2565b60405161046e91906130ee565b60405180910390f35b610491600480360361048c9190810190612ac9565b611054565b60405161049e91906130ee565b60405180910390f35b6104c160048036036104bc9190810190612af2565b61111b565b6040516104ce91906130b8565b60405180910390f35b6104f160048036036104ec9190810190612af2565b6111e5565b005b61050d600480360361050891908101906127fd565b611340565b60405161051a91906130b8565b60405180910390f35b61053d600480360361053891908101906127d4565b6113d4565b005b6000809054906101000a900473ffffffffffffffffffffffffffffffffffffffff1673ffffffffffffffffffffffffffffffffffffffff163373ffffffffffffffffffffffffffffffffffffffff16146105ce576040517f08c379a00000000000000000000000000000000000000000000000000000000081526004016105c590613190565b60405180910390fd5b80600060146101000a81548160ff021916908315150217905550600060149054906101000a900460ff1615610639577f62e78cea01bee320cd4e420270b5ea74000d11b0c9f74754ebdbfc544b05a2583360405161062c9190613051565b60405180910390a1610671565b7f5db9ee0a495bf2e6ff9c91a7834c1ba4fdd244a5e8aa4e537bd38aeae4b073aa336040516106689190613051565b60405180910390a15b50565b600060016000837bffffffffffffffffffffffffffffffffffffffffffffffffffffffff19167bffffffffffffffffffffffffffffffffffffffffffffffffffffffff1916815260200190815260200160002060009054906101000a900460ff169050919050565b60006106e78261156e565b610726576040517f08c379a000000000000000000000000000000000000000000000000000000000815260040161071d90613230565b60405180910390fd5b6003600083815260200190815260200160002060009054906101000a900473ffffffffffffffffffffffffffffffffffffffff169050919050565b600061076c82610cbc565b90508273ffffffffffffffffffffffffffffffffffffffff168173ffffffffffffffffffffffffffffffffffffffff1614156107dd576040517f08c379a00000000000000000000000000000000000000000000000000000000081526004016107d4906131b0565b60405180910390fd5b3373ffffffffffffffffffffffffffffffffffffffff168173ffffffffffffffffffffffffffffffffffffffff16148061081d575061081c8133611340565b5b61085c576040517f08c379a000000000000000000000000000000000000000000000000000000000815260040161085390613110565b60405180910390fd5b826003600084815260200190815260200160002060006101000a81548173ffffffffffffffffffffffffffffffffffffffff021916908373ffffffffffffffffffffffffffffffffffffffff160217905550818373ffffffffffffffffffffffffffffffffffffffff168273ffffffffffffffffffffffffffffffffffffffff167f8c5be1e5ebec7d5bd14f71427d1e84f3dd0314c0f7b2291e5b200ac8c7c3b92560405160405180910390a4505050565b606060108054600181600116156101000203166002900480601f0160208091040260200160405190810160405280929190818152602001828054600181600116156101000203166002900480156109a65780601f1061097b576101008083540402835291602001916109a6565b820191906000526020600020905b81548152906001019060200180831161098957829003601f168201915b5050505050905090565b6060600f8054600181600116156101000203166002900480601f016020809104026020016040519081016040528092919081815260200182805460018160011615610100020316600290048015610a485780601f10610a1d57610100808354040283529160200191610a48565b820191906000526020600020905b815481529060010190602001808311610a2b57829003601f168201915b5050505050905090565b6000600880549050905090565b610a6933826115e0565b610a7257600080fd5b610a7d838383611675565b505050565b610ac1828260006040519080825280601f01601f191660200182016040528015610abb5781602001600182028038833980820191505090505b50610b5e565b5050565b601760009054906101000a900473ffffffffffffffffffffffffffffffffffffffff1681565b6000610af683610d6e565b8210610b0157600080fd5b600660008473ffffffffffffffffffffffffffffffffffffffff1673ffffffffffffffffffffffffffffffffffffffff1681526020019081526020016000208281548110610b4b57fe5b9060005260206000200154905092915050565b505050565b60008060009054906101000a900473ffffffffffffffffffffffffffffffffffffffff1673ffffffffffffffffffffffffffffffffffffffff163373ffffffffffffffffffffffffffffffffffffffff1614610bf4576040517f08c379a0000000000000000000000000000000000000000000000000000000008152600401610beb90613190565b60405180910390fd5b60011515600060149054906101000a900460ff1615151415610c4b576040517f08c379a0000000000000000000000000000000000000000000000000000000008152600401610c4290613250565b60405180910390fd5b610c558383611699565b610c5e826116ba565b6001905092915050565b610c8383838360405180602001604052806000815250610f8c565b505050565b6000610c92610a52565b8210610c9d57600080fd5b60088281548110610caa57fe5b90600052602060002001549050919050565b6000806002600084815260200190815260200160002060009054906101000a900473ffffffffffffffffffffffffffffffffffffffff169050600073ffffffffffffffffffffffffffffffffffffffff168173ffffffffffffffffffffffffffffffffffffffff161415610d65576040517f08c379a0000000000000000000000000000000000000000000000000000000008152600401610d5c90613130565b60405180910390fd5b80915050919050565b60008073ffffffffffffffffffffffffffffffffffffffff168273ffffffffffffffffffffffffffffffffffffffff161415610ddf576040517f08c379a0000000000000000000000000000000000000000000000000000000008152600401610dd690613150565b60405180910390fd5b610e26600460008473ffffffffffffffffffffffffffffffffffffffff1673ffffffffffffffffffffffffffffffffffffffff1681526020019081526020016000206117d8565b9050919050565b60008060009054906101000a900473ffffffffffffffffffffffffffffffffffffffff16905090565b3373ffffffffffffffffffffffffffffffffffffffff168273ffffffffffffffffffffffffffffffffffffffff161415610e8f57600080fd5b80600560003373ffffffffffffffffffffffffffffffffffffffff1673ffffffffffffffffffffffffffffffffffffffff16815260200190815260200160002060008473ffffffffffffffffffffffffffffffffffffffff1673ffffffffffffffffffffffffffffffffffffffff16815260200190815260200160002060006101000a81548160ff0219169083151502179055508173ffffffffffffffffffffffffffffffffffffffff163373ffffffffffffffffffffffffffffffffffffffff167f17307eab39ab6107e8899845ad3d59bd9653f200f220920489ca2b5937696c3183604051610f8091906130b8565b60405180910390a35050565b610f97848484610a5f565b610fa3848484846117e6565b610fac57600080fd5b50505050565b606060118054600181600116156101000203166002900480601f01602080910402602001604051908101604052809291908181526020018280546001816001161561010002031660029004801561104a5780601f1061101f5761010080835404028352916020019161104a565b820191906000526020600020905b81548152906001019060200180831161102d57829003601f168201915b5050505050905090565b606061105f8261156e565b61106857600080fd5b601260008381526020019081526020016000208054600181600116156101000203166002900480601f01602080910402602001604051908101604052809291908181526020018280546001816001161561010002031660029004801561110f5780601f106110e45761010080835404028352916020019161110f565b820191906000526020600020905b8154815290600101906020018083116110f257829003601f168201915b50505050509050919050565b60008282600073ffffffffffffffffffffffffffffffffffffffff166019600084815260200190815260200160002060010160009054906101000a900473ffffffffffffffffffffffffffffffffffffffff1673ffffffffffffffffffffffffffffffffffffffff16146111c4576040517f08c379a00000000000000000000000000000000000000000000000000000000081526004016111bb90613170565b60405180910390fd5b6111ce85856111e5565b6111d88486610b63565b5060019250505092915050565b6111ed6125ad565b60405180604001604052808481526020018373ffffffffffffffffffffffffffffffffffffffff168152509050601881908060018154018082558091505090600182039060005260206000209060020201600090919290919091506000820151816000015560208201518160010160006101000a81548173ffffffffffffffffffffffffffffffffffffffff021916908373ffffffffffffffffffffffffffffffffffffffff16021790555050505080601960008581526020019081526020016000206000820151816000015560208201518160010160006101000a81548173ffffffffffffffffffffffffffffffffffffffff021916908373ffffffffffffffffffffffffffffffffffffffff1602179055509050507f28a597ac1f02f823f178eee5a6b9c44c9c6ca694679295240b2b0a43c7083cc58160405161133391906132b0565b60405180910390a1505050565b6000600560008473ffffffffffffffffffffffffffffffffffffffff1673ffffffffffffffffffffffffffffffffffffffff16815260200190815260200160002060008373ffffffffffffffffffffffffffffffffffffffff1673ffffffffffffffffffffffffffffffffffffffff16815260200190815260200160002060009054906101000a900460ff16905092915050565b6000809054906101000a900473ffffffffffffffffffffffffffffffffffffffff1673ffffffffffffffffffffffffffffffffffffffff163373ffffffffffffffffffffffffffffffffffffffff1614611463576040517f08c379a000000000000000000000000000000000000000000000000000000000815260040161145a90613190565b60405180910390fd5b600073ffffffffffffffffffffffffffffffffffffffff168173ffffffffffffffffffffffffffffffffffffffff1614156114d3576040517f08c379a00000000000000000000000000000000000000000000000000000000081526004016114ca90613210565b60405180910390fd5b806000806101000a81548173ffffffffffffffffffffffffffffffffffffffff021916908373ffffffffffffffffffffffffffffffffffffffff1602179055507ff260d1206b064dfcd9f66a6d0ea985c3bbc2e66256f9c81129870a94bfbfe4146000809054906101000a900473ffffffffffffffffffffffffffffffffffffffff166040516115639190613036565b60405180910390a150565b6000806002600084815260200190815260200160002060009054906101000a900473ffffffffffffffffffffffffffffffffffffffff169050600073ffffffffffffffffffffffffffffffffffffffff168173ffffffffffffffffffffffffffffffffffffffff161415915050919050565b6000806115ec83610cbc565b90508073ffffffffffffffffffffffffffffffffffffffff168473ffffffffffffffffffffffffffffffffffffffff16148061165b57508373ffffffffffffffffffffffffffffffffffffffff16611643846106dc565b73ffffffffffffffffffffffffffffffffffffffff16145b8061166c575061166b8185611340565b5b91505092915050565b6116808383836118fd565b61168a8382611b2c565b6116948282611cca565b505050565b6116a38282611d91565b6116ad8282611cca565b6116b681611f47565b5050565b6116c38161156e565b611702576040517f08c379a00000000000000000000000000000000000000000000000000000000081526004016116f990613230565b60405180910390fd5b6117ae60118054600181600116156101000203166002900480601f01602080910402602001604051908101604052809291908181526020018280546001816001161561010002031660029004801561179b5780601f106117705761010080835404028352916020019161179b565b820191906000526020600020905b81548152906001019060200180831161177e57829003601f168201915b50505050506117a983611f93565b6120c0565b6012600083815260200190815260200160002090805190602001906117d49291906125dd565b5050565b600081600001549050919050565b60006118078473ffffffffffffffffffffffffffffffffffffffff16612104565b61181457600190506118f5565b60008473ffffffffffffffffffffffffffffffffffffffff1663150b7a02338887876040518563ffffffff1660e01b8152600401611855949392919061306c565b602060405180830381600087803b15801561186f57600080fd5b505af1158015611883573d6000803e3d6000fd5b505050506040513d601f19601f820116820180604052506118a79190810190612aa0565b905063150b7a0260e01b7bffffffffffffffffffffffffffffffffffffffffffffffffffffffff1916817bffffffffffffffffffffffffffffffffffffffffffffffffffffffff1916149150505b949350505050565b61190681610cbc565b73ffffffffffffffffffffffffffffffffffffffff168373ffffffffffffffffffffffffffffffffffffffff1614611973576040517f08c379a000000000000000000000000000000000000000000000000000000000815260040161196a90613290565b60405180910390fd5b600073ffffffffffffffffffffffffffffffffffffffff168273ffffffffffffffffffffffffffffffffffffffff1614156119e3576040517f08c379a00000000000000000000000000000000000000000000000000000000081526004016119da906131f0565b60405180910390fd5b6119ec8161214f565b611a33600460008573ffffffffffffffffffffffffffffffffffffffff1673ffffffffffffffffffffffffffffffffffffffff16815260200190815260200160002061220d565b611a7a600460008473ffffffffffffffffffffffffffffffffffffffff1673ffffffffffffffffffffffffffffffffffffffff168152602001908152602001600020612230565b816002600083815260200190815260200160002060006101000a81548173ffffffffffffffffffffffffffffffffffffffff021916908373ffffffffffffffffffffffffffffffffffffffff160217905550808273ffffffffffffffffffffffffffffffffffffffff168473ffffffffffffffffffffffffffffffffffffffff167fddf252ad1be2c89b69c2b068fc378daa952ba7f163c4a11628f55a4df523b3ef60405160405180910390a4505050565b6000611b846001600660008673ffffffffffffffffffffffffffffffffffffffff1673ffffffffffffffffffffffffffffffffffffffff1681526020019081526020016000208054905061224690919063ffffffff16565b9050600060076000848152602001908152602001600020549050818114611c71576000600660008673ffffffffffffffffffffffffffffffffffffffff1673ffffffffffffffffffffffffffffffffffffffff1681526020019081526020016000208381548110611bf157fe5b9060005260206000200154905080600660008773ffffffffffffffffffffffffffffffffffffffff1673ffffffffffffffffffffffffffffffffffffffff1681526020019081526020016000208381548110611c4957fe5b9060005260206000200181905550816007600083815260200190815260200160002081905550505b600660008573ffffffffffffffffffffffffffffffffffffffff1673ffffffffffffffffffffffffffffffffffffffff168152602001908152602001600020805480919060019003611cc3919061265d565b5050505050565b600660008373ffffffffffffffffffffffffffffffffffffffff1673ffffffffffffffffffffffffffffffffffffffff168152602001908152602001600020805490506007600083815260200190815260200160002081905550600660008373ffffffffffffffffffffffffffffffffffffffff1673ffffffffffffffffffffffffffffffffffffffff1681526020019081526020016000208190806001815401808255809150509060018203906000526020600020016000909192909190915055505050565b6000809050611d9f8261156e565b15611ddf576040517f08c379a0000000000000000000000000000000000000000000000000000000008152600401611dd690613270565b60405180910390fd5b8073ffffffffffffffffffffffffffffffffffffffff168373ffffffffffffffffffffffffffffffffffffffff161415611e4e576040517f08c379a0000000000000000000000000000000000000000000000000000000008152600401611e45906131d0565b60405180910390fd5b611e95600460008573ffffffffffffffffffffffffffffffffffffffff1673ffffffffffffffffffffffffffffffffffffffff168152602001908152602001600020612230565b826002600084815260200190815260200160002060006101000a81548173ffffffffffffffffffffffffffffffffffffffff021916908373ffffffffffffffffffffffffffffffffffffffff160217905550818373ffffffffffffffffffffffffffffffffffffffff168273ffffffffffffffffffffffffffffffffffffffff167fddf252ad1be2c89b69c2b068fc378daa952ba7f163c4a11628f55a4df523b3ef60405160405180910390a4505050565b6008805490506009600083815260200190815260200160002081905550600881908060018154018082558091505090600182039060005260206000200160009091929091909150555050565b60606000821415611fdb576040518060400160405280600181526020017f300000000000000000000000000000000000000000000000000000000000000081525090506120bb565b600082905060005b60008214612005578080600101915050600a8281611ffd57fe5b049150611fe3565b6060816040519080825280601f01601f19166020018201604052801561203a5781602001600182028038833980820191505090505b50905060006001830390505b600086146120b357600a868161205857fe5b0660300160f81b8282806001900393508151811061207257fe5b60200101907effffffffffffffffffffffffffffffffffffffffffffffffffffffffffffff1916908160001a905350600a86816120ab57fe5b049550612046565b819450505050505b919050565b60606120fc8383604051806020016040528060008152506040518060200160405280600081525060405180602001604052806000815250612290565b905092915050565b60008060007fc5d2460186f7233c927e7db2dcc703c0e500b653ca82273b7bfad8045d85a47060001b9050833f915080821415801561214657506000801b8214155b92505050919050565b600073ffffffffffffffffffffffffffffffffffffffff166003600083815260200190815260200160002060009054906101000a900473ffffffffffffffffffffffffffffffffffffffff1673ffffffffffffffffffffffffffffffffffffffff161461220a5760006003600083815260200190815260200160002060006101000a81548173ffffffffffffffffffffffffffffffffffffffff021916908373ffffffffffffffffffffffffffffffffffffffff1602179055505b50565b6122256001826000015461224690919063ffffffff16565b816000018190555050565b6001816000016000828254019250508190555050565b600061228883836040518060400160405280601e81526020017f536166654d6174683a207375627472616374696f6e206f766572666c6f770000815250612552565b905092915050565b6060808690506060869050606086905060608690506060869050606081518351855187518951010101016040519080825280601f01601f1916602001820160405280156122ec5781602001600182028038833980820191505090505b509050606081905060008090506000809050600090505b88518110156123715788818151811061231857fe5b602001015160f81c60f81b83838060010194508151811061233557fe5b60200101907effffffffffffffffffffffffffffffffffffffffffffffffffffffffffffff1916908160001a9053508080600101915050612303565b600090505b87518110156123e45787818151811061238b57fe5b602001015160f81c60f81b8383806001019450815181106123a857fe5b60200101907effffffffffffffffffffffffffffffffffffffffffffffffffffffffffffff1916908160001a9053508080600101915050612376565b600090505b8651811015612457578681815181106123fe57fe5b602001015160f81c60f81b83838060010194508151811061241b57fe5b60200101907effffffffffffffffffffffffffffffffffffffffffffffffffffffffffffff1916908160001a90535080806001019150506123e9565b600090505b85518110156124ca5785818151811061247157fe5b602001015160f81c60f81b83838060010194508151811061248e57fe5b60200101907effffffffffffffffffffffffffffffffffffffffffffffffffffffffffffff1916908160001a905350808060010191505061245c565b600090505b845181101561253d578481815181106124e457fe5b602001015160f81c60f81b83838060010194508151811061250157fe5b60200101907effffffffffffffffffffffffffffffffffffffffffffffffffffffffffffff1916908160001a90535080806001019150506124cf565b82995050505050505050505095945050505050565b600083831115829061259a576040517f08c379a000000000000000000000000000000000000000000000000000000000815260040161259191906130ee565b60405180910390fd5b5060008385039050809150509392505050565b604051806040016040528060008152602001600073ffffffffffffffffffffffffffffffffffffffff1681525090565b828054600181600116156101000203166002900490600052602060002090601f016020900481019282601f1061261e57805160ff191683800117855561264c565b8280016001018555821561264c579182015b8281111561264b578251825591602001919060010190612630565b5b5090506126599190612689565b5090565b815481835581811115612684578183600052602060002091820191016126839190612689565b5b505050565b6126ab91905b808211156126a757600081600090555060010161268f565b5090565b90565b6000813590506126bd816134ce565b92915050565b6000813590506126d2816134e5565b92915050565b6000813590506126e7816134fc565b92915050565b6000813590506126fc81613513565b92915050565b60008151905061271181613513565b92915050565b600082601f83011261272857600080fd5b813561273b61273682613313565b6132e6565b9150808252602083016020830185838301111561275757600080fd5b61276283828461347b565b50505092915050565b600082601f83011261277c57600080fd5b813561278f61278a8261333f565b6132e6565b915080825260208301602083018583830111156127ab57600080fd5b6127b683828461347b565b50505092915050565b6000813590506127ce8161352a565b92915050565b6000602082840312156127e657600080fd5b60006127f4848285016126ae565b91505092915050565b6000806040838503121561281057600080fd5b600061281e858286016126ae565b925050602061282f858286016126ae565b9150509250929050565b60008060006060848603121561284e57600080fd5b600061285c868287016126ae565b935050602061286d868287016126ae565b925050604061287e868287016127bf565b9150509250925092565b6000806000806080858703121561289e57600080fd5b60006128ac878288016126ae565b94505060206128bd878288016126ae565b93505060406128ce878288016127bf565b925050606085013567ffffffffffffffff8111156128eb57600080fd5b6128f787828801612717565b91505092959194509250565b6000806040838503121561291657600080fd5b6000612924858286016126ae565b9250506020612935858286016126c3565b9150509250929050565b6000806040838503121561295257600080fd5b6000612960858286016126ae565b9250506020612971858286016127bf565b9150509250929050565b60006020828403121561298d57600080fd5b600061299b848285016126c3565b91505092915050565b600080604083850312156129b757600080fd5b60006129c5858286016126d8565b925050602083013567ffffffffffffffff8111156129e257600080fd5b6129ee8582860161276b565b9150509250929050565b600080600060608486031215612a0d57600080fd5b6000612a1b868287016126d8565b935050602084013567ffffffffffffffff811115612a3857600080fd5b612a448682870161276b565b925050604084013567ffffffffffffffff811115612a6157600080fd5b612a6d86828701612717565b9150509250925092565b600060208284031215612a8957600080fd5b6000612a97848285016126ed565b91505092915050565b600060208284031215612ab257600080fd5b6000612ac084828501612702565b91505092915050565b600060208284031215612adb57600080fd5b6000612ae9848285016127bf565b91505092915050565b60008060408385031215612b0557600080fd5b6000612b13858286016127bf565b9250506020612b24858286016126ae565b9150509250929050565b612b3781613421565b82525050565b612b46816133a3565b82525050565b612b55816133a3565b82525050565b612b64816133b5565b82525050565b6000612b758261336b565b612b7f8185613381565b9350612b8f81856020860161348a565b612b98816134bd565b840191505092915050565b612bac81613433565b82525050565b6000612bbd82613376565b612bc78185613392565b9350612bd781856020860161348a565b612be0816134bd565b840191505092915050565b6000612bf8604483613392565b91507f43616c6c6572206d75737420626520746865206f776e6572206f66207468652060008301527f636f6e7472616374206f72206d75737420626520617070726f76656420666f7260208301527f20616c6c000000000000000000000000000000000000000000000000000000006040830152606082019050919050565b6000612c84600f83613392565b91507f496e76616c6964206164647265737300000000000000000000000000000000006000830152602082019050919050565b6000612cc4600f83613392565b91507f4164647265737320496e76616c696400000000000000000000000000000000006000830152602082019050919050565b6000612d04601683613392565b91507f536f6c7574696f6e20616c7265616479206164646564000000000000000000006000830152602082019050919050565b6000612d44602783613392565b91507f43616c6c6564206279206f74686572206163636f756e742c206e6f742074686560008301527f206f776e657221000000000000000000000000000000000000000000000000006020830152604082019050919050565b6000612daa602b83613392565b91507f54686520676976656e206164647265737320697320746865206f776e6572206f60008301527f662074686520746f6b656e0000000000000000000000000000000000000000006020830152604082019050919050565b6000612e10601883613392565b91507f476976656e206164647265737320697320696e76616c696400000000000000006000830152602082019050919050565b6000612e50602583613392565b91507f496e76616c696420616464726573732c207472616e73666572206e6f7420616c60008301527f6c6f7765640000000000000000000000000000000000000000000000000000006020830152604082019050919050565b6000612eb6601983613392565b91507f56616c69642061646472657373206973207265717569726564000000000000006000830152602082019050919050565b6000612ef6601583613392565b91507f546f6b656e20646f6573206e6f742065786973747300000000000000000000006000830152602082019050919050565b6000612f36601283613392565b91507f436f6e74726163742069732070617573656400000000000000000000000000006000830152602082019050919050565b6000612f76601a83613392565b91507f476976656e20746f6b656e20616c7265616479206578697374730000000000006000830152602082019050919050565b6000612fb6601683613392565b91507f496e76616c69642c206e6f7420746865206f776e6572000000000000000000006000830152602082019050919050565b604082016000820151612fff6000850182613018565b5060208201516130126020850182612b3d565b50505050565b61302181613417565b82525050565b61303081613417565b82525050565b600060208201905061304b6000830184612b4c565b92915050565b60006020820190506130666000830184612b2e565b92915050565b60006080820190506130816000830187612b2e565b61308e6020830186612b4c565b61309b6040830185613027565b81810360608301526130ad8184612b6a565b905095945050505050565b60006020820190506130cd6000830184612b5b565b92915050565b60006020820190506130e86000830184612ba3565b92915050565b600060208201905081810360008301526131088184612bb2565b905092915050565b6000602082019050818103600083015261312981612beb565b9050919050565b6000602082019050818103600083015261314981612c77565b9050919050565b6000602082019050818103600083015261316981612cb7565b9050919050565b6000602082019050818103600083015261318981612cf7565b9050919050565b600060208201905081810360008301526131a981612d37565b9050919050565b600060208201905081810360008301526131c981612d9d565b9050919050565b600060208201905081810360008301526131e981612e03565b9050919050565b6000602082019050818103600083015261320981612e43565b9050919050565b6000602082019050818103600083015261322981612ea9565b9050919050565b6000602082019050818103600083015261324981612ee9565b9050919050565b6000602082019050818103600083015261326981612f29565b9050919050565b6000602082019050818103600083015261328981612f69565b9050919050565b600060208201905081810360008301526132a981612fa9565b9050919050565b60006040820190506132c56000830184612fe9565b92915050565b60006020820190506132e06000830184613027565b92915050565b6000604051905081810181811067ffffffffffffffff8211171561330957600080fd5b8060405250919050565b600067ffffffffffffffff82111561332a57600080fd5b601f19601f8301169050602081019050919050565b600067ffffffffffffffff82111561335657600080fd5b601f19601f8301169050602081019050919050565b600081519050919050565b600081519050919050565b600082825260208201905092915050565b600082825260208201905092915050565b60006133ae826133f7565b9050919050565b60008115159050919050565b6000819050919050565b60007fffffffff0000000000000000000000000000000000000000000000000000000082169050919050565b600073ffffffffffffffffffffffffffffffffffffffff82169050919050565b6000819050919050565b600061342c82613457565b9050919050565b600061343e82613445565b9050919050565b6000613450826133f7565b9050919050565b600061346282613469565b9050919050565b6000613474826133f7565b9050919050565b82818337600083830152505050565b60005b838110156134a857808201518184015260208101905061348d565b838111156134b7576000848401525b50505050565b6000601f19601f8301169050919050565b6134d7816133a3565b81146134e257600080fd5b50565b6134ee816133b5565b81146134f957600080fd5b50565b613505816133c1565b811461351057600080fd5b50565b61351c816133cb565b811461352757600080fd5b50565b61353381613417565b811461353e57600080fd5b5056fea365627a7a72315820e8773f0054ff35e2bb6fcac4444d377323b57eb724db328e2f32ae6cc98f7c3c6c6578706572696d656e74616cf564736f6c6343000511004068747470733a2f2f73332d75732d776573742d322e616d617a6f6e6177732e636f6d2f756461636974792d626c6f636b636861696e2f63617073746f6e652f",
  "source": "pragma solidity >=0.4.21 <0.6.0;\npragma experimental ABIEncoderV2;\n\nimport \"./Verifier.sol\";\nimport \"./ERC721Mintable.sol\";\nimport 'openzeppelin-solidity/contracts/math/SafeMath.sol';\n\ncontract SolnSquareVerifier is CustomERC721Token {\n\n    Verifier public verifier;\n    SolutionsStruct[] solutions;\n\n    mapping(uint256 => SolutionsStruct) submittedSolutions;\n\n    event SolutionIsAdded(SolutionsStruct solutionsStruct);\n    event SolutionsIsMinted(uint256 _index, address _address);\n\n\n    constructor (string memory name, string memory symbol)\n        CustomERC721Token(name, symbol) public\n    { \n        verifier = Verifier(msg.sender);\n    }\n\n    struct SolutionsStruct {\n        uint256 _index;\n        address _address;\n    }\n\n    function addSolution(uint256 _index, address _address) public\n    {\n      \n        SolutionsStruct memory solutionStruct = SolutionsStruct( _index, _address );\n        solutions.push(solutionStruct);\n        submittedSolutions[_index] = solutionStruct;\n\n        emit SolutionIsAdded(solutionStruct);\n    }\n\n    modifier solutionIsUnique(uint256 _index, address _address)\n    {\n        require (submittedSolutions[_index]._address == address(0), 'Solution already added');\n        _;\n    }\n\n    function mintNewNFT(uint256 _index, address _address) \n        public solutionIsUnique(_index,_address) returns(bool) \n    {\n        addSolution(_index, _address);\n        super.mint(_address, _index);\n\n        return true;\n    }\n}\n",
  "sourcePath": "/Users/bobbygrossmann/Documents/applications/udacity/blockchain/Blockchain-Capstone-master/eth-contracts/contracts/SolnSquareVerifier.sol",
  "compiler": {
    "name": "solc",
    "version": "0.5.17+commit.d19bba13.Emscripten.clang"
  },
  "schemaVersion": "3.4.4",
  "updatedAt": "2022-01-16T09:54:57.266Z",
  "networkType": "ethereum",
  "devdoc": {
    "methods": {
      "isApprovedForAll(address,address)": {
        "details": "Tells whether an operator is approved by a given owner",
        "params": {
          "operator": "operator address which you want to query the approval of",
          "owner": "owner address which you want to query the approval of"
        },
        "return": "bool whether the given operator is approved by the given owner"
      },
      "setApprovalForAll(address,bool)": {
        "details": "Sets or unsets the approval of a given operator An operator is allowed to transfer all tokens of the sender on their behalf",
        "params": {
          "approved": "representing the status of the approval to be set",
          "to": "operator address to set the approval"
        }
      },
      "supportsInterface(bytes4)": {
        "details": "implement supportsInterface(bytes4) using a lookup table"
      },
      "tokenByIndex(uint256)": {
        "details": "Gets the token ID at a given index of all the tokens in this contract Reverts if the index is greater or equal to the total number of tokens",
        "params": {
          "index": "uint256 representing the index to be accessed of the tokens list"
        },
        "return": "uint256 token ID at the given index of the tokens list"
      },
      "tokenOfOwnerByIndex(address,uint256)": {
        "details": "Gets the token ID at a given index of the tokens list of the requested owner",
        "params": {
          "index": "uint256 representing the index to be accessed of the requested tokens list",
          "owner": "address owning the tokens list to be accessed"
        },
        "return": "uint256 token ID at the given index of the tokens list owned by the requested address"
      },
      "totalSupply()": {
        "details": "Gets the total amount of tokens stored by the contract",
        "return": "uint256 representing the total amount of tokens"
      }
    }
  },
  "userdoc": {
    "methods": {}
  }
}